:020000040040BA
:10000000F01940207D0240005D034000A908000077
:10001000E5080000C7024000C7024000C7024000D8
:10002000000000000000000000000000C7024000C7
:10003000C7024000000000000D0800008D0E4000C7
:10004000B90D4000A14F0000C7024000C7024000A8
:10005000C7024000C7024000C7024000C70240007C
:10006000C7024000C7024000C702400061730000A1
:10007000C7024000C7024000C7024000015900000B
:10008000C7024000C7024000590A4000C7024000B2
:10009000C7024000C7024000C7024000510B4000A9
:1000A000C7024000C7024000C7024000C70240002C
:1000B000C7024000C7024000C7024000C70240001C
:1000C0000000000000000000000000000000000030
:1000D0000000000000000000000000000000000020
:1000E0000000000000000000000000000000000010
:1000F0000000000000000000000000000000000000
:100100000348044B834202D0034B03B118477047A6
:10011000EC154020EC15402000000000064B07497C
:10012000C91A891048BF0131491003D0044B0BB1E3
:1001300001481847704700BFEC154020EC154020DF
:100140000000000010B5064C237843B9FFF7D8FF34
:10015000044B13B10448AFF300800123237010BD9A
:10016000F0194020000000009415400008B5054B30
:100170001BB105490548AFF30080BDE80840FFF713
:10018000CDBF00BF00000000F419402094154000CE
:100190007047704737B540F6B832084B084C9D6C35
:1001A0002368EB1A934206D900F02AF901A900F05E
:1001B00037F900B9256003B030BD00BF000004402E
:1001C0000C1A402007B50B4B93F8DB3073B10A4B88
:1001D0000A489A6C0A4B1A6055F492FD142000F0FC
:1001E00015F900F00DF901A900F01AF9002003B08B
:1001F0005DF804FB00FD4020000004409501400034
:100200000C1A40200020704708B501F4D1FE4FF0D1
:1002100080421369012123F0030343F001031361BA
:100220001369022043F010031361032202F48CF8D7
:10023000BDE80840FFF7ACBF7047000008B50B4AA7
:100240000B4B9A60D3F8882042F03F02C3F8882015
:10025000FFF7F2FF50F4BAF905F476FE00F0E7FC80
:1002600051F436F8034B044A1A6008BD0000400000
:1002700000ED00E0B015402040787D01DFF848D067
:10028000124880F30A88FFF7D9FF114C114DAC4298
:1002900009DA21686268A368043BA2BFC858D0503D
:1002A000FAE70C34F3E70C4B0C4CA34208DA19685C
:1002B0005A680020043AA4BF8850FBE70833F4E7EB
:1002C00000F0C4FEFEE7FEE7F0194020F0154020E4
:1002D000A8154000A8154000A8154000B015400022
:1002E00000207047704708B5FFF78EFFFFF7FAFF51
:1002F00000F061FA032001F4FBFE002000F0C3FDD2
:10030000003818BF012008BD024A1368013313608A
:10031000704700BF101A4020034670B5B8B142F2D2
:1003200010754FF0E026AB4284BFA3F51C5442F297
:100330001073326998BF0024184688BF103CD30759
:1003400008D401F4C3FC2346002CECD101E001F4F5
:10035000BDFC70BD01F49CFCF5E7000008B5054B41
:100360001B695B0002D500F037FC08BD00F02EFDD4
:10037000FBE700BF00F00040114BF0B598421BD1E5
:10038000032A1BD100241C2707FB04F68D198E5964
:1003900000EBC4135E606E6801341E61EE68A24219
:1003A0009E622E699E636E695E64AE691E65AD686D
:1003B000DD61E9D80020F0BD022AE2E70120FAE77A
:1003C00000000A5007B50021022000F0ABF8002120
:1003D000019001A800F0C2F8003818BF0120404287
:1003E00003B05DF804FB07B50021022000F09AF885
:1003F0000021019001A800F0C3F803B05DF804FBF0
:10040000014B1878704700BFB415402018B1034B5A
:100410001870002070474FF0FF307047B41540202F
:1004200073B506460D4601F490FC00286DD1FFF728
:10043000C9FF00286CD1384C0120D4F814316FF377
:10044000DC4343F40023C4F81431D4F8143143F0EE
:100450000053C4F81431D4F8143123F48033C4F8B1
:100460001431D4F81431C4F81431D4F814316FF3C2
:100470000F03C4F81431D4F814311E43C4F81461C6
:10048000D4F8143143F40033C4F8143100F0ECFC18
:10049000D4F81831002BFBDA2048D4F81821016871
:1004A0001F4E22F0004271B3336893421DD2D41A1A
:1004B000FA2C23D9994221D9C91AFA291ED903EB5A
:1004C00043040D23083403FB024424090260042280
:1004D00002200DEB02013460019401F4E3FC2C6076
:1004E000FFF781FF002002B070BD07D99C1AC82C0D
:1004F00004D9994202D2591AC829DFE7C3EB031481
:1005000014440834E1E71446E0E74FF0FF30EAE72F
:100510006FF00200E7E700BF00000940181A402012
:10052000141A4020012808B508D103290ED808481C
:1005300000E00848182303FB010008E0012905D862
:100540000228F6D0D821044800F0CCFC002008BDD9
:1005500000200850002000407812400008B538B153
:10056000006848B14069002808DB00F00F0008BDB2
:100570000220FFF7D7FFF4E70420F8E70020F6E7B2
:1005800008B530B1006818B1436943F000434361D6
:1005900008BD0220FFF7C6FFF5E770B50546002647
:1005A00003681C699C6004B970BDE30704D5AB689F
:1005B00013B12846F1B2984764080136F3E700000A
:1005C00010B5044618B93D210B4800F08BFC237D83
:1005D000072B03D93E21084800F084FC2368227DC4
:1005E000103303EB0213A26863605A60E2680020D4
:1005F0009A600123237610BDE112400030B501243A
:10060000037D026804FA03F31D0491B102245168CA
:10061000194341F48031516091680B432B4393603F
:10062000C27C837D43EA0243426813600476002063
:1006300030BD91682B4321EA03039360F6E7012361
:100640000268007D516883400B435360704700008F
:1006500010B55AB151B123285DD047D80B283BD8EB
:10066000E0B940F24B31414800F03CFC002051E041
:1006700059380728F5D801A454F820F03507400070
:100680004D074000550740005D07400063064000ED
:100690006306400063064000650740000138002300
:1006A0000A28DED801A454F820F000BF4707400014
:1006B00063064000630640004107400063064000B7
:1006C0003B074000630640006306400063064000AD
:1006D0002F0740002907400016284FF000031FD0C5
:1006E0002228BED10B604FF4007310E06028B8D808
:1006F00058284FF00003BBD8382805D03A28B0D18D
:100700000B604FF4803302E00B604FF480734FF0C6
:100710008040136010BD00230B604FF48063F6E748
:100720000B604FF40043F2E70B604023EFE70B60F0
:100730002023ECE70B601023E9E70B600823E6E7D2
:100740000B600423E3E70B600223E0E70B604FF448
:100750008013DCE70B604FF40023D8E70B604FF405
:100760008023D4E70B608023D1E700BF1213400041
:1007700007B56A4601A9FFF76BFFB0F1804F01D1C1
:10078000019B3BB140F63D01094803B05DF804EB25
:1007900000F0A8BBEFF31082012383F310884368B5
:1007A00000990B43436082F3108803B05DF804FBAB
:1007B00012134000704708B5FFF7FCFF08BD0000AA
:1007C000F8B5124E124B134C336020332360124A9B
:1007D000124B134F1A60134B134D3B6003F5E67336
:1007E0002B60124B02F56B7211481A6005F42EF95A
:1007F000396830684FF4E67254F4FCF920684FF41D
:10080000E672296854F4F6F90020F8BDE8E64020C5
:1008100000E04020ECE6402040E04020F0E64020B0
:10082000F4E6402050E04020F8E64020FCE640207E
:100830007D590000044A054B1A60013A12680AB15A
:100840001B681847704700BF016040001C1A402019
:1008500010B5012000F046F951F44EFE01F475FA8E
:1008600028B950F4FBFCFFF7CBFD50F4EBFC032060
:1008700050F4F8FC00240E230C4A0D491046C2E93E
:100880000744137553F4C4FB0A4855F439FA0A486F
:1008900053F49CFCFFF7CEFF00F0C2F801F480FD9A
:1008A000204604F43BFB204610BD00BF201A402028
:1008B000A813400055790100BD084000013008B57B
:1008C00001D0012008BD17F43BFA0028F9D103201C
:1008D000F8E7000008B5094B0246186A10F020003E
:1008E00006D0074B9A4204D1012904D917F428FAFB
:1008F00008BD0020FCE74FF0FF30F9E7000004409E
:10090000201A402004F4ACBB08B501F449FD04F4FE
:100910007FFBBDE80840002000F0E4B810B548B106
:10092000012809D04FF407620449054850F416FD28
:10093000204610BD0224FBE70624F9E7C01340005F
:1009400054134000062238B50D4C02230125A27035
:10095000032204202370E2702371657050F43CFC84
:1009600043881420023BE37150F436FC43886571E0
:10097000023B2372A5712046BDE8384050F45CBCB0
:10098000D4EA402000B5164A91B0537990795B00C3
:1009900003F0020300F00100184350F449FC282240
:1009A000002106A800F060FC4FF400720D4B0621F8
:1009B000CDE903320023CDE901314FF42773012241
:1009C0004FF48051009306A84FF400534FF480FD7C
:1009D00006A804F411FB09F415FA11B05DF804FB44
:1009E000D4EA402000FE402010B50020FFF796FF1B
:1009F000084B53F820309847044628B940F6E312D4
:100A00000549064850F4AAFC2046BDE810400021E4
:100A100050F43ABCCCFD0500B4134000561340001E
:100A200008B5FFF78FFFFFF7ADFFFFF7DDFF08BD4C
:100A3000074BD3F89820C2F30B03120544BF83F48D
:100A40007F6383F00F0313B1024A1268136070478B
:100A500000400840B8154020074B10B51C6851F401
:100A6000FBFFA30704D50548FFF7E9FDFFF7E0FF0B
:100A7000BDE8104052F408B800C00040601A4020A1
:100A800070B516461C225043114D124A2C182A509C
:100A900001222275104A05201268E074A26000222B
:100AA0001220A1751146E260A674238201F4FEFAB9
:100AB0002046FFF785FD28B140F25F12074908483C
:100AC00050F44CFC2046BDE870400121FFF796BD74
:100AD000601A402000C00040B8154020CD134000EF
:100AE0005913400010B528B10022084B1B681A604A
:100AF0005A601A813820FFF73BFEBDE81040002302
:100B000069211A461846FFF7BBBF00BFB815402041
:100B1000072910B50C4604D95D220A490A4850F449
:100B20001DFC0A4B5A6AE240D20703D51CB9986AE9
:100B300015F406FE10BD03EB8403986ABDE810406F
:100B400015F4E2BDD81340006213400098E4402041
:100B500008B551F481FF0348FFF71FFDBDE80840C9
:100B600051F492BFBC154020064A08B513690648E7
:100B700043F00053136150F40FFC044851F448FD56
:100B8000002008BD00F00040B10B4000910B400078
:100B900010B5064C23695B0006D4012001F42AFA43
:100BA000236943F080532361012010BD00F0004011
:100BB00010B5084C23695B000AD4012001F41AFA2D
:100BC000236943F080532361BDE8104000F01EBB51
:100BD00010BD00BF00F0004008B551F43DFF40F2E9
:100BE00069120449044850F4B9FBBDE8084051F4C7
:100BF0004BBF00BFF81340005413400070477047CC
:100C0000012908B501D8002008BD15F437FD08B941
:100C10000720F9E715F450FD0028F9D0024B5A6A75
:100C20001B6A1A42EFD0F3E700000440704708B592
:100C300000F058FC08BD0000014B1878704700BF59
:100C400054FD402010B50F4C236A9A0606D459F47F
:100C5000D5FD236A9B060BD4002010BD0A4B002B48
:100C6000F5D0FFF74FFE0028F1D04FF0FF30F4E74A
:100C7000064C2368002BEFD0FFF746FE00232360CD
:100C8000EAE700BF0000044005094000EC1A4020DC
:100C900010B50022FC210C4854F4B4FC01200B498F
:100CA00053F498FA0A49002053F4B2F915F4E2FB20
:100CB000084B094C9B6CA36055F492FA0123E06049
:100CC0002370002010BD00BFC81540202C14400028
:100CD0002014400000000440CC1A4020704700005F
:100CE000F8B52C4B19600239032905D8DFE801F06B
:100CF0004A410902FFF7F2FF274B5A6A274B1A6055
:100D00003FE0092052F4C8FF04464568071DBD4274
:100D10001DD1214EFFF796FFB26C214B21489A61FD
:100D200050F4B8FF054618B10422012150F438FFF1
:100D3000736C1D4823F00103736400F4EFFF6468D3
:100D4000BC420CD115F43AFE15F46CFED4E7A5F1C3
:100D50000C000422022150F423FF2D68D7E7A4F1F0
:100D60000C00854203D00422012150F419FF2468AD
:100D7000E6E759F4E1FB084B00289A6C084B9A61AE
:100D8000BADBF8BD59F424FC034B9A6C044B9A610E
:100D9000B2E700BFC0E840200000044058FD4020FA
:100DA000CC1A40208913400000000840014BD86055
:100DB000704700BFCC1A402008B551F44DFE00F436
:100DC00011FBBDE8084051F45FBE704738B5184BC1
:100DD0001A682ABB0124174D1C602B695A001FD4C6
:100DE000FFF7F3FF204601F405F92B69204643F095
:100DF00080532B61104B114D4BF681342B6000F06A
:100E000033F834222B68DA602B685B699B0708D4BF
:100E1000012000F029F8074A136843F0010313602A
:100E200038BD013CF4D0012000F450FFECE700BFD6
:100E3000F01A402000F0004000B00040F41A4020BA
:100E4000C26A816A043A10B50A440446D0E908012E
:100E5000044B51F403FCA16AE061BDE8104000F0CE
:100E60002DB900BFD15A050007B50190019B13B9F8
:100E700003B05DF804FB4FF47A70FFF74DFA019B65
:100E8000013B0193F2E700207047000070B5144D5C
:100E900051F4E2FD6B6AFFF737FA55F4A1F9EB6AFA
:100EA00004469B0605D455F4A3F9BDE8704051F4FF
:100EB000EBBDAD6C461C01F4ADF80123024629469A
:100EC00030464FF409FD8442EFD08642EBD055F412
:100ED0008FF955F48DF9A01CFFF768FFE5E700BF17
:100EE00000000440002307B54FF41A720549064874
:100EF000019350F433FA019B002BFCD003B05DF852
:100F000004FB00BF3414400054134000704700003D
:100F100008B5FFF7FBFFFFF7E6F9084854F446FF72
:100F2000FFF737F951F4B8FB51F400FC04490548C8
:100F300054F41AFBBDE8084000F00EB8410E400022
:100F4000005C4020001D40200020704700207047BA
:100F5000002070470020704738B5044C044DAC4267
:100F600000D338BD54F8043B9847F8E76C154000AF
:100F70007015400038B5054C054DAC4200D338BD66
:100F800054F8043B002BF8D09847F6E77015400062
:100F90009015400013B502248DF8064054F456FF16
:100FA00090F835308DF8073054F450FF21460DF19C
:100FB000060254F45FFCFFF7DDFF54F447FF2146BF
:100FC0000DF1070254F456FCFFF71CF902B010BDF6
:100FD000704700000223142213B50B49CDE90032FB
:100FE0000A484FF48063002254F48CFC044628B96C
:100FF00040F261120649074850F4B0F9204602B0A9
:10100000BDE8104054F4C0BF950F40008D13400060
:10101000451440009213400008B5FFF7DFF3FFF7D7
:1010200005FEFFF775FFFFF707FE08B954F401FA54
:1010300054F416FC54F4EAFBFFF7CCFF54F418FC0C
:1010400000F01EF854F4F8FB002008BD08B5FFF7C7
:10105000BFFFFFF7E1FF002008BD000038B5002406
:10106000064D55F8043B03B198470134042CF8D1E0
:1010700054F4C8FD54F406FBF1E700BFECEF402048
:101080001FB507232022CDE902324FF400730193EC
:10109000064B074A009307490023074854F44AFEC9
:1010A000054805B05DF804EB54F46EBF001B40200A
:1010B0005D104000A113400070EF40207047000019
:1010C000EFF3108072B6704780F31088704740BF0E
:1010D0005F4A1368012B04D04FF0010313605D4A8F
:1010E00010605D4A11605D484FF0805101607047AB
:1010F000EFF3108272B656480168C9B14FF0000193
:1011000001605448016849B1EFF3098121E9F00F0A
:10111000EFF30B8441F8044D006801604E49096803
:10112000096810C984F30B88B1E8F00F81F30988CE
:1011300082F310884EF0040E704749484FF47F0147
:10114000D0F8002041EA020101607047424908607E
:1011500040494FF0000008603D494FF00100086031
:101160003F484FF47F01D0F8002041EA02010160BE
:101170003A484FF0805101603A480068006800BF6B
:1011800080F3088861B662B6704700BF20BF704721
:10119000EFF308801EF0040F01D0EFF3098020E97F
:1011A000F00FEFF30B8440F8044D40F804ED1EF00F
:1011B000040F02D080F3098801E080F3088800B5AD
:1011C00051F42DFA5DF804EB4EF0040E7047EFF386
:1011D00008801EF0040F01D0EFF3098020E9F00F22
:1011E000EFF30B8440F8044D40F804ED1EF0040FBB
:1011F00002D080F3098801E080F3088800B551F43B
:1012000011FA5DF804EB4EF0040E704710B4EFF3E2
:10121000038410B47C4610B400B54DF804CD0FB46F
:10122000089C2DE9F00FEFF30B8410B4684651F4DD
:10123000B5F910BC84F30B88BDE8F00F0FBC5DF866
:1012400004CB5DF804EB10BC10BC10BCFEE7000042
:10125000A4F8402074F8402078F8402004ED00E025
:1012600020ED00E008ED00E002440346934200D187
:10127000704703F8011BF9E7453A5C4F70656E5300
:1012800069466C695C7369666C692D73646B5C6438
:101290007269766572735C68616C5C6266305F6807
:1012A000616C5F6D61696C626F782E6300453A5CBA
:1012B0004F70656E5369466C695C7369666C692D25
:1012C00073646B5C647269766572735C68616C5C94
:1012D0006266305F68616C5F70696E6D75782E63F1
:1012E00000453A5C4F70656E5369466C695C736982
:1012F000666C692D73646B5C647269766572735C8D
:1013000068616C5C6266305F68616C5F7074632EEC
:101310006300453A5C4F70656E5369466C695C7357
:1013200069666C692D73646B5C647269766572734F
:101330005C68616C5C6266305F68616C5F7263639D
:101340002E630063616C6C6261636B20213D204EF3
:10135000554C4C003000746C0052545F46414C5365
:101360004500715F696478203C204950435F4857CD
:101370005F51554555455F4E554D0048414C5F4FB7
:101380004B203D3D206572720070696E006D616991
:101390006E0074696420213D2052545F4E554C4CC0
:1013A000007469646C650000D5084000000000000E
:1013B00000000000706F72745F636F6E6669670093
:1013C000726F6D5F706F72745F67657400707463C5
:1013D0005F636F6E6669670068637075326C637017
:1013E000755F6E6F74696669636174696F6E5F6360
:1013F000616C6C6261636B004442475F5472696761
:101400006765725F49525148616E646C6572007025
:101410006D5F70696E5F726573746F726500000056
:10142000010C4000FF0B4000000000000A0000001B
:101430000300000048414C5F41737365727446615C
:10144000696C65640072745F6170706C696361746B
:10145000696F6E5F696E69740000000010B5044624
:1014600020B940F681010A48FFF73CFD2268094B8C
:1014700000201A6062685A60A2689A60E268DA60C6
:10148000226903F540439A636269DA6310BD00BFC5
:10149000AD124000003000407047704708B50C485E
:1014A000FFF7DCFF28B140F2A7120A490A484FF4BF
:1014B00055FF022209490A48FEF75EFF38B1BDE830
:1014C000084040F2AB12034903484FF447BF08BD40
:1014D0007C1A40200F1440007B134000941A4020D7
:1014E0000000084038B5164C236803F00303032BB3
:1014F000144B02D000221A7038BD01251D7055F41E
:1015000001FC114A136943F000531361636C23F02B
:1015100002036364FFF7C2FF636C23F0010363649B
:10152000FEF7E1FEFFF75AF1084B1D60FEF731FEB2
:1015300051F4B2F8FFF78FF14FF4A0FBDCE700BFE6
:101540000000044054FD402000F00040EC1A402010
:10155000F8B500BFF8BC08BC9E467047F8B500BFA0
:10156000F8BC08BC9E467047490F40004D0F400034
:10157000510F4000910C4000E1A60200C50140005F
:10158000EDAC0500C107400051084000690B400068
:08159000550F400000000000AF
:10159800E4ECFF7FB0B0B08040EDFF7F01000000B9
:0815A800F019402010030000BF
:1015B000006CDC02C80000009027084000200850A2
:1015C00000000000110B4000E10C400099144000A5
:1015D000DDAB0500F5AB05009B144000FD0B4000A2
:0C15E0008DAB05006D014000450140008E
:040000050040104D5A
:00000001FF
